:1018FE00014800014F02014C00013B580141010615
:10190E002B00000000000006420000000000000650
:10191E0031000000000000014900014B00012800C9
:100C0D00788076FF0876FF0876FF0876FF0876FF76
:100C1D000876FF0876FF087607087680087669085B
:100C2D0076FF0876FF0876FF0876FF0876FF0876D0
:100C3D00FF22788076FC0876270876300876C20881
:100C4D0076C40876A80876FF0876070876800876B9
:100C5D00690876FC0876270876300876C20876C4CF
:100C6D000876A82274802560F8E4F60560E5602218
:100C7D00E5277F8025E025E02275F0648424ECFFD4
:100C8D00E43413FE227880A62B08A62C08A62D0886
:100C9D00A62E08A62F08A630227880A64208A643C5
:100CAD0008A64408A64508A64608A64722E53875B5
:100CBD00F0648424E8FFE43403FEE53822E53A7558
:100CCD00F0648424D0FFE43407FEE53A220876FF71
:100CDD0008760708768008766908222560F8E6FF11
:100CED0074212560F8A6070560E56022E52A75F0F8
:100CFD006484FF7E0022E52975F064842464FFE49A
:100D0D0033FE22A63108A63208A63308A63408A65B
:100D1D003508A63622E53775F06484244CFFE4349B
:100D2D0004FEE53722E53975F064842434FFE4349C
:100D3D0008FEE53922E52875F06484241CFFE434AF
:100D4D000CFEE5282275F06484ADF02275F0648404
:100D5D002404FFE43410FE2275F003A4C58325F0AE
:030D6D00C5832219
:021676008F6182
:101678007880E6F56208E6F56308E6F56408E6F5BD
:101688006508E6F56608E6F567788AE6F56808E627
:10169800F56908E6F56A08E6F56B08E6F56C08E60C
:1016A800F56DED7008FB7A00796202125E7B007AB4
:1016B800007962AF6112125EEF7010E56104FF7B82
:1016C800007A00796812125EEF60037F01227F00C2
:0116D80022EF
:101A390075C13E1219BE7F261215A112179E1216E4
:101A49000EEF7001223000E8C200E4FDFFFE120F24
:031A5900C680DD67
:0614A0008F618D628B6379
:1014A600E4F564AF64E563A807088002C313D8FCBB
:1014B60030E01E1215207B60AD611211C0EF701175
:1014C600E561120C7F2562FD121848EF700CAF64BF
:1014D600220564E564C3940440C9E4F564AF64E599
:1014E60063A807088002C313D8FC30E02112152038
:1014F6007B61AD611211C0EF70147F80E56125E05C
:1015060025E02562FD121848EF700CAF64220564D1
:09151600E564C3940440C67FFFA4
:0C151F0022121A39AF6412198F7F7B2250
:101A7500E4F5917592FFF5B175B2A0121A5C1212D8
:061A8500FB50FB021AD425
:101079007F107880E4F608DFFC120C7DFD12152B39
:10108900EF60030210CB120C7D04FD12152BEF60EB
:10109900030210CB120C7D2402FD12152BEF600305
:1010A9000210CBE52164FC7005120C3F8008E52194
:1010B900F47003120C0D120C7D2403FD12152BEF95
:1010C9006005121AD4804BE53B24FD601B24FE60A9
:1010D9002824047039052AE52AD394C84003752ABF
:1010E90001120CF9E52A80200538E538D394C84067
:1010F90003753801120CBA800F053AE53AD394C842
:101109004003753A01120CCA120D52120FC6781318
:05111900760D121AD44E
:01111E0022AE
:10111F007F107880E4F608DFFC7D041211B96003BC
:10112F000211657D051211B960030211657F807D83
:10113F000612152BEF6002801DE52164FC7005126D
:10114F000C3F8008E521F47003120C0D7F807D07A2
:10115F0012152BEF6005121AD4804BE53B24FD606E
:10116F001B24FE602824047039052AE52AD394C86D
:10117F004003752A01120CF9E52A80200538E5385D
:10118F00D394C84003753801120CBA800F053AE5A5
:10119F003AD394C84003753A01120CCA120D521279
:0911AF000FC67813760D121AD454
:0811B800227F8012152BEF22AB
:10000E00121A757531AC75321E7533577534AF755E
:10001E00351975364E7F007E02121AB28F277F0079
:10002E007E04121AB28F217F017E04121AB28F2221
:10003E007F027E04121AB28F237F037E04121AB23D
:10004E008F247404FFFE121AB28F257F057E0412D0
:10005E001AB28F267F067E04121AB28F4CE54CB46C
:10006E00FF157521FC7522277523307524C2752561
:10007E00C47526A8754C01E527047055E4FD7F0173
:10008E00FE120FC6E4FFFE121AFD7DACE4FFFE1257
:10009E001A8B7D1E7F017E00121A8B7D577F027E8A
:1000AE0000121A8B7DAF7F037E00121A8B7D197F93
:1000BE00047E00121A8B7D4E7F057E00121A8B1263
:1000CE001AF07F007E02121AFD7D01120BD2120B66
:1000DE00BEC2017811761408760D087601087606F0
:1000EE00087601087602120AE37FC8121AC4AF27F7
:1000FE007E00E4FD120FC6120AFD7FC8121AC478E4
:10010E0011760C08760CE521B4FC06087608087604
:10011E0008E521B4FF077813760908760978157675
:10012E000C08760C788076AC08761E087657087622
:10013E00AF08761908764EE4FD7F02121676C200DD
:10014E007B04120BB6EF0470030203C524FD70F09E
:10015E00C2007F807D04121848EF700A7F907D05E3
:10016E00121848EF60030207427886E6F4703F7576
:10017E003B1CF549F54B054FE54FD394014003E485
:10018E00F54FE54F14601404701EE549120CFB1276
:10019E000B2C78117613087610800A120B17781133
:1001AE00761308761308760D121AD4120BBE7886C3
:1001BE00E664206003020294F5607429120C73B495
:1001CE0002F8E4F5607437120C73B402F8E4F560CB
:1001DE007439120C73B402F8E4F528F560743C120D
:1001EE000C73B405F8E4F5607450120C73B410F887
:1001FE00E54C64027019754C01F5607480120CE8C0
:10020E00B406F878137608087608753B58801DE515
:10021E004C64017017754C02F560748A120CE8B4C8
:10022E0006F878137609087609753B637F007E041D
:10023E00121AFDAD217F007E04121A8BAD227F01B2
:10024E007E04121A8BAD237F027E04121A8BAD240C
:10025E007F037E04121A8BAD257404FFFE121A8BD7
:10026E00AD267F057E04121A8BAD4C7F067E0412DE
:10027E001A8B121AF07811760C08760C7815760C0B
:10028E0008760C120B387F64121AC47886E6FFC308
:10029E009401500302033EEFD3940F400302033E3A
:1002AE00121AD4754F027886E6F52708E6F54A7FCE
:1002BE00007E02121AFDAD27120BD2120AE3E4F5EC
:1002CE00607429120C73B402F8E4F5607437120CE2
:1002DE0073B402F8E4F5607439120C73B402F8E4E6
:1002EE00F528F560743C120C73B405F8E4F56074EF
:1002FE0050120C73B410F8E4F56074802560F8E6C3
:10030E00FF742B2560F8A607748A2560F8E6FF7443
:10031E0042120CEFB406E3E53B64586010E53BB4C3
:10032E0063028009053BE53BD394084003E4F53BAB
:10033E007886E6FFD394104008EF94015003020133
:10034E004EE53BB40900506590035DF82828730212
:10035E00037802038002038702038C0203910203D7
:10036E009602039B0203A00203A9120D03E52902C4
:10037E0003B8120CF9E52A8031120D22802C120CD2
:10038E00BA8027120D328022120CCA801D120D4225
:10039E008018E537120D59E537800FE53875F06492
:1003AE008424A0FFE4340FFEE538120B4B7813764D
:1003BE000D120AFD02014EE54F706C7880120C2D65
:1003CE00120BAE6003020742120B91EF64037057DB
:1003DE00F560120C71B410FA120C7DFD12152BEF94
:1003EE006003020742120C7D120C066003020742E4
:1003FE00120C7D120BE56003020742120C3F120C29
:10040E007D120BED60030207420549E549D394C8FE
:10041E004003754901E549120D05120B2C78117632
:10042E001308761002049FE54F64017068788012FD
:10043E000C5F120BAE6003020742120B91EF6403C6
:10044E007053F560120C71B410FA120C7DFD12157A
:10045E002BEF6003020742120C7D120C06600302A2
:10046E000742120C7D120BE56003020742120C0DBF
:10047E00120C7D120BED6003020742054BE54BD3C8
:10048E0094C84003754B01120B177811761308763A
:10049E00130802070FE53B600302053D7880A62195
:1004AE0008A62208A62308A62408A62508A6261212
:1004BE000BF560030207427B08120BDDEF6403703D
:1004CE0063F560120C71B410FA120C7DFD12152B2F
:1004DE00EF6003020742120C7D04FD12152BEF6034
:1004EE0003020742120C7D2402FD12152BEF60034E
:1004FE00020742120CA6120CDA120CA8120C7D2462
:10050E0003FD12152BEF60030207420529E529D3DF
:10051E0094C84003752901120D03E529120B4B787F
:10052E001302070F7B03120BDDBF0103020720E549
:10053E003B6401701D120CA6120BF56003020742FC
:10054E007B08E4FDAF271214A0BF03061210790238
:10055E00014EE53B6402600FE53B64046009E53B38
:10056E0064076003020723120B5560030207421251
:10057E000B87EF64036003020714F560120C71B46D
:10058E0010FAE53B24FEB40A0050629005A0120D4D
:10059E0065730205BE0205FB0205C70205FB0205D7
:1005AE00FB0205D00205D90205E20205EB0205F4B5
:1005BE007880760108760A8034788076FA0876019B
:1005CE00802B788076FF0876FF8022788076F00880
:1005DE0076028019788076F008760380107880761F
:1005EE00F00876048007788076F00876057D041290
:1005FE000BA76003020742E47880F608F67D051229
:10060E000BA76003020742120BC9600302074212D6
:10061E000C92120CDA120C94120BFD6003020742BC
:10062E00E53B24FEB40A00400302070D900641127A
:10063E000D657302065F02070D02067102070D02B9
:10064E00070D0206830206980206B50206D20206BE
:10065E00EF0537E537D394C84003753701120D22E5
:10066E0002070A0539E539D394C8400375390112DA
:10067E000D3202070A053CE53CD394C84003753C95
:10068E0001E53C120D59E53C8072053DE53DD394E4
:10069E00C84003753D01E53D75F064842468FFE4B0
:1006AE003410FEE53D8055053EE53ED394C840032B
:1006BE00753E01E53E75F0648424CCFFE43410FEF3
:1006CE00E53E8038053FE53FD394C84003753F01B2
:1006DE00E53F75F064842430FFE43411FEE53F807D
:1006EE001B0540E540D394C84003754001E54075B5
:1006FE00F064842494FFE43411FEE540120B71780B
:10070E0013760D0208B27B03E4FD7F011214A0EFF5
:10071E0070030208B2E53B6403600CE53B640560C0
:10072E0006E53B6408701F120C92E4FD7F0312165F
:10073E0076EF6006121AD40208B2120B87BF0306B8
:10074E0012111F02014EE53B64066014E53BC39493
:10075E000C500302014EE53BD3941B400302014EA5
:10076E00120B556006121AD40208B27B08120BB691
:10077E00EF6403600302014EF560120C71B410FABF
:10078E00E53B120E8407CA0607DF0C07E90D07F2D8
:10079E000E07FB0F080410080D11081612081F1380
:1007AE00082814083115083A16084317084C18087B
:1007BE005519085E1A08671B0000086E120C920885
:1007CE00A62708A64AE408F608F608120CA802089E
:1007DE006E78867610E408F602086E788676100833
:1007EE007601807C7886761008760280737886761D
:1007FE0010087603806A7886761008760480617811
:10080E0086761008760580587886761008760680EB
:10081E004F788676100876078046788676100876AA
:10082E0008803D78867610087609803478867610B2
:10083E0008760A802B7886761008760B80227886CA
:10084E00761008760C80197886761008760D801052
:10085E007886761008760E80077886761008760FE2
:10086E007F807D0412152BEF6005121AD48035E4BB
:10087E00F560120C71B410FA7F907D0512152BEFF6
:10088E006005121AD4801D120BC96005121AD4808D
:10089E00137880120D10120CDA120D10120BFD606F
:1008AE0009121AD4121AD402014EE53B120E840814
:1008BE00F40609060C09240D093A0E09580F09769B
:1008CE001009941109B11209CE1309EB140A081577
:1008DE000A29160A44170A5F180A79190A931A0A7E
:1008EE00B21B00000ACF0528E528D394C840037533
:1008FE002801120D42020A230550E550D394C84038
:10090E0003755001E55075F064842488FFE43413B8
:10091E00FEE550020A230551E551D394C8400375F4
:10092E005101E551120C86E551020A230552E5529A
:10093E00D394C84003755201E55275F06484245077
:10094E00FFE43414FEE552020A230553E553D39413
:10095E00C84003755301E55375F0648424B4FFE475
:10096E003414FEE553020A230554E554D394C840CB
:10097E0003755401E55475F064842418FFE43415AE
:10098E00FEE554020A230555E555D394C840037578
:10099E005501E55575F06484247CFFE43415FEE5BD
:1009AE005580720556E556D394C84003755601E539
:1009BE005675F0648424E0FFE43415FEE556805548
:1009CE000557E557D394C84003755701E55775F0A1
:1009DE0064842444FFE43416FEE55780380558E558
:1009EE0058D394C84003755801E55875F0648424B3
:1009FE00A8FFE43416FEE558801B0559E559D3943B
:100A0E00C84003755901E55975F06484240CFFE460
:100A1E003417FEE559120B71020ACF055AE55AD367
:100A2E0094C84003755A01E55A120C86E55A120B0A
:100A3E007B760E020ACF055BE55BD394C840037547
:100A4E005B01E55B120C86E55B120B7B760F020AEF
:100A5E00CF055CE55CD394C84003755C01E55C1280
:100A6E000C86E55C120B9B76108056055DE55DD31A
:100A7E0094C84003755D01E55D120C86E55D120BB1
:100A8E009B7611803C055EE55ED394C84003755E8F
:100A9E0001E55E120C86E55E120D52120FC678123B
:100AAE007612801D055FE55FD394C84003755F0124
:100ABE00E55F120C86E55F120D52120FC6781276A4
:100ACE00137813760D120B387FC8121AC47FC81212
:050ADE001AC402014EE4
:100AE3007FC8121AC47FC8121AC47FC8121AC47FDF
:100AF300C8121AC47FC8121AC4227FC8121AC47F2C
:100B0300C8121AC47FC8121AC47FC8121AC47FC875
:100B1300121AC422E54B75F06484FF7E00E54B7521
:100B2300F06484ADF0120FC622E54975F06484AD1C
:100B3300F0120FC622121AD47FC8121AC47FC81229
:100B43001AC47FC8121AC42275F06484ADF0120F60
:100B5300C6227880A62108A62208A62308A6240870
:100B6300A62508A626E4FD7F03121676EF2275F06C
:100B73006484ADF0120FC62275F06484ADF0120FD9
:100B8300C67812227B08E4FD7F011214A0227B08A1
:100B9300E4FDAF271214A02275F06484ADF0120FA8
:100BA300C67812227F8012152BEF22FD7F031216C7
:100BB30076EF22E4FD7F011214A0227FC8121AC42B
:100BC3007FC8121AC4227F807D0612152BEF227F65
:100BD300007E02121A8B121AF022E4FDAF271214C0
:100BE300A0222402FD12152BEF222403FD12152B44
:100BF300EF22FD7F03121676EF227F807D07121509
:0A0C03002BEF2204FD12152BEF2247
:101AA000D2B6D2CCD2CDD2A0227C00AF03AE0202FD
:021AB0000E2FF7
:100EAA00121AA0D2A7D2A674112510F8E6B415001A
:100EBA004003020F6E900EC6F8282873020F05022F
:100ECA000F0A020F0F020F14020F19020F1E020F50
:100EDA0023020F28020F2D020F32020F37020F3C96
:100EEA00020F41020F46020F4B020F50020F55022A
:100EFA000F5A020F5F020F64020F697590F580673F
:100F0A0075900580627590B3805D7590978058756D
:100F1A00904780537590D6804E7590F680497590AB
:100F2A008580447590F7803F7590D7803A759075A3
:100F3A00803575909F8030E4F590802B7590028003
:100F4A00267590E78021759076801C7590F0801741
:100F5A0075903780127590F2800D7590E280087551
:100F6A0090E380037590FFE510B403063001034354
:100F7A009008E51014601614601B14602214602C8B
:100F8A0014603124057034C2B6D2CC8004D2B6C201
:100F9A00CCD2CD8006D2B6D2CCC2CDD2A08008D2D5
:100FAA00B6D2CCD2CDC2A0D2A7D2A622121AA0C241
:0C0FBA00A7D2A622121AA0D2A7C2A6221B
:100FC600D3EF940FEE942740067A277B0F8004AA6E
:100FD60006AB07EDD39463400575656380028D65A6
:100FE600E47811F608F608F608F608F608F6C3EBF4
:100FF60094E8EA9403401B7C037DE8121AAB78114F
:10100600EFF67E007C037DE8120E1DC3EB9FFBEA24
:101016009EFAC3EB9464EA940040177D64121AA901
:101026007812A607E675F064A4FFC3EB9FFBEA956A
:10103600F0FAC3EB940AEA940040137D0A121AA947
:101046007813A607E675F00AA4FFC3EB9FFBAF0370
:101056007814A607E565C3940A4013E56575F00A9A
:101066008408F675F00AA4FFC3E5659FF565781652
:02107600A6656D
:011078002255
:101A5C00C2AFC28C5389F0438901758A06758CFA22
:091A6C00C2B9D2A9D28CD2AF227A
:03000B0002196077
:10196000C0E0C083C082C0D075D008C28C758A0622
:10197000758CFAD28CE510C39405500405108003D1
:0F198000751000120EAAD0D0D082D083D0E032E2
:1016D900D2A1EF25E0FFC2A10E227F0A12192FEF36
:1016E90022EF75F00CA42480FFE435F0FEEF22AB65
:1016F90076AA77A9788D82758300227D0F7F2202D1
:1017090018958F82758300020D897B007A00798094
:101719008F797F02227F0112192F8F61E56122F8EB
:10172900E6FE74822FF8A606227F0A12192F78186E
:03173900EFF622A6
:081388008F758B768A77897856
:10139000EF54C0707CEF25E04480FFC2A3E4FEEF71
:1013A00030E704D2A28002C2A21216D9BE08F0E42D
:1013B000FDEDC395795055E579146D6009E57544E7
:1013C0004025E0FF8002E4FF1216F8E4120DFBE472
:1013D000FEEFA806088002C333D8FC30E704D2A28F
:1013E0008002C2A2D2A1AB76E5782DF9E43577FA76
:1013F000120D7025E0120DE930A4081216F87401E0
:10140000120DB6C2A10EBE08C80D80A5D2A37F00E2
:03141000227F0137
:0114130022B6
:10192F00EF25E0FF430780C2A3E4FEEF30E704D2C8
:10193F00A28002C2A21216D9BE08F0E4FFFED2A105
:10194F00EF25E0FF30A4010FC2A10EBE08F0D2A315
:01195F002265
:06173C008B778A788979A1
:10174200EF54C07054EF25E0547EFFC2A3E4FEEFD5
:1017520030E704D2A28002C2A21216D9BE08F0E477
:10176200FDEDC3957A502DAB77AA78A9798D8212B7
:10177200170DFFE4FEEFA806088002C333D8FC3041
:10178200E704D2A28002C2A2D2A100C2A10EBE0868
:0B179200E40D80CDD2A37F00227F0178
:01179D002229
:0B188A007D3F7F121218957D037F2226
:10189500EF25E0FF53077EC2A3E4FEEF30E704D255
:1018A500A28002C2A21216D9BE08F0E4FEED30E70E
:1018B50004D2A28002C2A2D2A1ED25E0FDC2A10EF2
:0518C500BE08EAD2A3F9
:0118CA0022FB
:1012FB00C2A1D2A2D2A4D2A57F02121AC4C2A57FC8
:10130B00011218CBE4F562F56312171E6011056329
:10131B00E56370020562C394FAE562940040EAE566
:10132B006364FA45627008121AD4121AD4C3227D70
:10133B0080E4FF121895E4F562F56312171E70072F
:10134B00FDFF12189580110563E56370020562C3FA
:10135B0094FFE562941F40E37D7F7F061218957D15
:10136B007F7F071218957D5B7F111218957D017F8A
:0C137B001E1218957D057F21121895D3D5
:011387002243
:0215A100AC0795
:1015A30012188A7D077F0F1218957880A6047F0989
:1015B30012192F7817EFF654F7F6FD7F09121895D5
:1015C3007D807B017F1E1217FD7817EFF670037F76
:1015D30001227F801219EA7817A6077881E6700442
:1015E3007F0180027F007880E6B404047E018002DC
:1015F3007E00EE5FFF7817E6B402047E0180027E70
:0A16030000EE5F60037F00227F15F8
:01160D0022BA
:101A12007F0912192FAC07430401AD047F09121884
:101A220095E4FD7F0412192FAC07EC70037F0122AD
:061A32000DBDA0EF7F00D6
:011A3800228B
:0B1B0900ED60078D7A7F0212173C226E
:0219EA00AD0747
:1019EC007F0412192F8F74E5746005D39410400393
:1019FC007F0022AF057A00A9077B008574797F02EE
:051A0C00121388AF7405
:011A110022B2
:0617FD008F748B75AA0534
:10180300E4FD7F01121895121A12EF7002FF22AF46
:10181300027A00A9077B00AD75121B09AD747F0125
:10182300121895E4FD7F0112192FAC077F071219D7
:101833002FEF5480FFEC6003BF80037F01220DBDB7
:04184300A0E37F009F
:01184700227E
:10179E0012188A788076930876207D807B027F1ED1
:1017AE001217FDEF70037F01227F0412192FEF70C5
:1017BE00037F0C221217131213887F0A12192F534C
:1017CE000701EF7027FE74802EF8E662070EBE0545
:1017DE00F5EF60037F0822E4FE74802EF8E6FF74B6
:0E17EE007B2EF8A6070EBE05F07F00227F08B6
:0117FC0022CA
:10160E007D3F7F1212189512170478807693087614
:10161E0070E4FF747B2F1217280FBF05F67D807BB9
:10162E00077F1E1217FDEF70037F01221216E330A3
:10163E00E1037F0522EF30E2037F1422EF30E30354
:10164E007F02227F0412192FEF640160037F0C22A8
:10165E001217131213887880E6FF64086004EFB443
:07166E0028037F00227F1614
:011675002252
:06125E008B6E8A6F89709F
:10126400EFC3942040037F01221216EA7880F6AF80
:101274000608A607E4FFAB6EAA6FA97012170BF558
:101284007154F0C4540FFE12170BF454F04EFEEFD9
:101294002FFD2482F8A606E571540FFEF4FCC45415
:1012A400F04EFE74832DF8A6060FBF06C97D807B21
:1012B4000E7F011217FD7F04121AC47B007A007995
:1012C400717579017F05121388EF60037F0122E5B0
:1012D4007130E60C1212EAEF60037F01227F0022D4
:0512E4001212EA7F0177
:1012E90022E4F571FB7A007971757A017F01121791
:0212F9003C2295
:10198F00EFC3942040037F00221216EAF5658E669E
:10199F007D657B027F0B1217FDEF7002FF227F0127
:0E19AF00121AC41216E330E6037F00227F01F5
:0119BD002207
:0411C000AC05AA07C9
:1011C400ECC39410400353040F1217047880A60351
:1011D400EC25E025E0240308F6E47817F67817E612
:1011E400FF2A121728781706E6B404F17D807B06DF
:1011F4007F0C1217FD7818EFF670037F99221217EF
:101204003230E1037F05227818E6FE30E2037F14D2
:1012140022EE30E3037F02227D80E4FB7F14121769
:10122400FD7818EFF670037F882212173230E1033D
:101234007F05227818E6FE30E2037F1422EE30E3C5
:10124400037F02227F0912192F7819EFF65408FF41
:09125400F6BF08037F00227F04AD
:01125D00226E
:041848008F65AC05F7
:10184C001217047566308C677D667B027F1E12173B
:10185C00FDEF70037F01221216E330E1037F0522B6
:10186C00EF30E2037F1422EF30E3037F0222AF65F7
:0D187C001219EAEF641060037F0C227F0058
:01188900223C
:04152B008F61AC051B
:10152F007D077F221218957562A08C637D627B0206
:10153F007F1E1217FDEF70037F01227F641219EADD
:10154F00EF70037F0C22E56414601524FD600E1408
:10155F00601124FB6013240A700C7F0A227F032280
:10156F007F02227F05227F0F227B10AD617F1E122B
:10157F0017FDBF01037F00221216E330E1037F0541
:10158F0022EF30E2037F1422EF30E3037F02227F4A
:01159F000F3C
:0115A0002228
:1019BE0012188A78807650E408F67D807B027F1AB2
:1019CE001217FDBF01037F00221216E330E1037FE1
:0B19DE000522EF30E2037F14227F019E
:0119E90022DB
:0E1AE20075C782C2AF75C65A75C6A5D2AF22AF
:1018CB00AE071FEE602C00000000000000000000BF
:1018DB0000000000000000000000000000000000FD
:1018EB0000000000000000000000000000000000ED
:0318FB0080CE227A
:101AC400AD07AF051DEF60077F641218CB80F322CA
:0E1AD400D2B57F96121AC4C2B57F50021AC452
:0D1AF000E4F5C7F5C5F5C675C380F5C42241
:0B1AFD008EC3E4F5C475C503121AE2A5
:011B080022BA
:101AB200AD07AC068CC3EDF5C475C501121AE2AFD1
:011AC200C261
:011AC3002200
:101A8B00AB07AA068AC3EBF5C475C50275C7828D71
:041A9B00C2121AE574
:011A9F002224
:03000000021414D3
:0C141400787FE4F6D8FD75819F02145B20
:100D7000BB010689828A83E0225002E722BBFE0281
:090D8000E32289828A83E49322B4
:100D8900BB010CE58229F582E5833AF583E022501F
:100D990006E92582F8E622BBFE06E92582F8E22269
:0D0DA900E58229F582E5833AF583E4932283
:100DB600BB010FF8E58229F582E5833AF583E02841
:100DC600F0225009C58229F8E58226F622BBFE09E3
:100DD600C58229F8E22582F222F8EA2583F583E91D
:030DE6009328222D
:100DE900BB010689828A83F0225002F722BBFE01E9
:020DF900F322E3
:100DFB00F8BB010DE58229F582E5833AF583E8F02E
:100E0B00225006E92582C8F622BBFE05E92582C8D9
:020E1B00F222C1
:100E1D00EF8DF0A4A8F0CF8CF0A428CE8DF0A42EE9
:020E2D00FE22A3
:100E2F00BC000BBE0029EF8DF084FFADF022E4CCA7
:100E3F00F875F008EF2FFFEE33FEEC33FCEE9DEC70
:100E4F00984005FCEE9DFE0FD5F0E9E4CEFD22EDB6
:100E5F00F8F5F0EE8420D21CFEADF075F008EF2F00
:100E6F00FFED33FD4007985006D5F0F222C398FDF1
:050E7F000FD5F0EA228E
:100E8400D083D082F8E4937012740193700DA3A3FD
:100E940093F8740193F5828883E473740293686011
:060EA400EFA3A3A380DF11
:1014200002000EE493A3F8E493A34003F68001F2D4
:1014300008DFF48029E493A3F85407240CC8C333CD
:10144000C4540F4420C8834004F456800146F6DF9C
:10145000E4800B01020408102040809018FEE47E16
:10146000019360BCA3FF543F30E509541FFEE49391
:10147000A360010ECF54C025E060A840B8E493A358
:10148000FAE493A3F8E493A3C8C582C8CAC583CA83
:10149000F0A3C8C582C8CAC583CADFE9DEE780BE3B
:01192E0000B8
:00000001FF
